:020000040000FA
:100000000C94DF000C9435070C940E070C94070138
:100010000C9407010C9407010C9407010C94070140
:100020000C9407010C9407010C9407010C94070130
:100030000C9407010C9407010C9407010C94070120
:100040000C94C4060C9407010C9492060C946C0654
:100050000C9407010C9407010C9407010C94070100
:100060000C9407010C94070100407A10F35A00A089
:10007000724E18090010A5D4E80000E87648170071
:1000800000E40B54020000CA9A3B000000E1F505B1
:10009000000080969800000040420F000000A086FB
:1000A00001000000102700000000E803000000002D
:1000B0006400000000000A000000000001000000D1
:1000C00000002C76D888DC674F0823DFC1DFAE59EB
:1000D000E1B1B796E5E3E453C63AE651997696E87E
:1000E000E6C28426EB898C9B62ED407C6FFCEFBC02
:1000F0009C9F40F2BAA56FA5F490055A2AF75C932D
:100100006B6CF9676DC11BFCE0E40D47FEF520E662
:10011000B500D0ED902E0300943577050080841E45
:10012000080000204E0A000000C80C333333330FA0
:10013000986E12831141EF8D2114893BE65516CF3D
:10014000FEE6DB18D1844B381BF77C1D901DA4BB49
:10015000E424203284725E228100C9F124ECA1E5FE
:100160003D270000000023002600290000000000B9
:10017000240027002A0000000000250028002B0092
:10018000040404040404040402020202020203033D
:100190000303030301020408102040800102040845
:1001A00010200102040810200000000800020100D5
:1001B00000030407000000000000000053081124A1
:1001C0001FBECFEFD8E0DEBFCDBF23E0ACE8B2E08A
:1001D00001C01D92AC33B207E1F712E0A0E0B1E03C
:1001E000E0E7FFE102C005900D92AC38B107D9F706
:1001F00010E0CFEDD0E004C02197FE010E94BE0DBB
:10020000CE3DD107C9F70E94A1070C94B60F0C94FC
:100210000000EDEAF1E02491E9E9F1E09491E5E8EC
:10022000F1E0E491EE23C9F0222339F0233001F10B
:10023000A8F4213019F1223029F1F0E0EE0FFF1F70
:10024000EA58FE4FA591B4912FB7F894EC91811123
:1002500026C090959E239C932FBF08952730A9F028
:100260002830C9F0243049F7209180002F7D03C049
:10027000209180002F7720938000DFCF24B52F7747
:1002800024BDDBCF24B52F7DFBCF2091B0002F778D
:100290002093B000D2CF2091B0002F7DF9CF9E2BBC
:1002A000DACF8091000190910101019690930101B4
:1002B000809300010895AF92BF92CF92DF92EF92A8
:1002C000FF920F931F93CF93DF936C017B018B0100
:1002D000040F151FEB015E01AE18BF08C017D10750
:1002E00059F06991D601ED91FC910190F081E02DDA
:1002F000C6010995892B79F7C501DF91CF911F912F
:100300000F91FF90EF90DF90CF90BF90AF90089546
:10031000FC01538D448D252F30E0842F90E0821B0B
:10032000930B541710F0CF96089501970895FC0190
:10033000918D828D981761F0A28DAE0FBF2FB11DE8
:100340005D968C91928D9F5F9F73928F90E0089540
:100350008FEF9FEF0895FC01918D828D981731F0FA
:10036000828DE80FF11D858D90E008958FEF9FEF4E
:100370000895FC01918D228D892F90E0805C9F4F24
:10038000821B91098F73992708958BE992E00E944F
:10039000B90121E0892B09F420E0822F089580E043
:1003A00090E0892B29F00E94C50181110C94000076
:1003B0000895FC01A48DA80FB92FB11DA35ABF4FFA
:1003C0002C91848D90E001968F739927848FA68954
:1003D000B7892C93A089B1898C91837080648C93A8
:1003E000938D848D981306C00288F389E02D808157
:1003F0008F7D80830895EF92FF920F931F93CF9389
:10040000DF93EC0181E0888F9B8D8C8D98131AC04F
:10041000E889F989808185FF15C09FB7F894EE8936
:10042000FF896083E889F989808183708064808393
:100430009FBF81E090E0DF91CF911F910F91FF90DE
:10044000EF900895F62E0B8D10E00F5F1F4F0F7386
:100450001127E02E8C8D8E110CC00FB607FCFACF41
:10046000E889F989808185FFF5CFCE010E94D90105
:10047000F1CFEB8DEC0FFD2FF11DE35AFF4FF08212
:100480009FB7F8940B8FEA89FB8980818062CFCF78
:10049000CF93DF93EC01888D8823B9F0AA89BB89BB
:1004A000E889F9898C9185FD03C0808186FD0DC0A6
:1004B0000FB607FCF7CF8C9185FFF2CF808185FFC7
:1004C000EDCFCE010E94D901E9CFDF91CF91089500
:1004D000CF93DF9390E0FC01EC56FE4F24918058BF
:1004E0009E4FFC0184918823D1F090E0880F991FE2
:1004F000FC01E459FE4FA591B491FC01EA58FE4F6E
:10050000C591D49161110EC09FB7F8948C91E22FE0
:10051000E0958E238C932881E223E8839FBFDF91AF
:10052000CF9108958FB7F894EC91E22BEC938FBFA5
:10053000F6CF3FB7F8948091970290919802A091DE
:100540009902B0919A0226B5A89B05C02F3F19F0D9
:100550000196A11DB11D3FBFBA2FA92F982F882743
:10056000BC01CD01620F711D811D911D42E0660F1E
:10057000771F881F991F4A95D1F708958F929F92F0
:10058000AF92BF92CF92DF92EF92FF920E949902B8
:100590004B015C018AEFC82ED12CE12CF12C0E947A
:1005A0009902681979098A099B09683E7340810597
:1005B0009105A8F321E0C21AD108E108F10888EEFC
:1005C000880E83E0981EA11CB11CC114D104E10463
:1005D000F10429F7FF90EF90DF90CF90BF90AF909C
:1005E0009F908F9008950895FC0101900020E9F7F5
:1005F0003197AF01481B590BBC018BE992E00C9479
:100600005B01CF93DF93FC0144815581608171814F
:100610008BE992E00E945B01EC018EE191E00E9487
:10062000F4028C0F9D1FDF91CF9108958F929F92BE
:10063000AF92BF920F931F93CF93DF93CDB7DEB7E7
:10064000A1970FB6F894DEBF0FBECDBF19A24230FE
:1006500008F44AE08E010F5D1F4F842E912CB12CBF
:10066000A12CA50194010E947D0DE62FB901CA01BC
:10067000EA30F4F4E05DD801EE938D01232B242BB6
:10068000252B79F790E080E0109719F0CD010E94BA
:10069000F402A1960FB6F894DEBF0FBECDBFDF9176
:1006A000CF911F910F91BF90AF909F908F90089521
:1006B000E95CE1CFCF93DF930E94F402EC018EE17D
:1006C00091E00E94F4028C0F9D1FDF91CF9108955D
:1006D0000F931F93CF93DF93EC018881998100974B
:1006E00059F02A813B812617370730F081E0DF91EE
:1006F000CF911F910F9108958B016F5F7F4F0E94E3
:10070000E90E009759F0998388831B830A832C8113
:100710003D81232B59F7FC011082E8CF80E0E7CF21
:10072000EF92FF920F931F93CF93DF9361157105A3
:1007300041F480E0DF91CF911F910F91FF90EF90F6
:10074000089541155105B1F07B01EC010C811D812B
:10075000040F151FB8010E946803882351F32881F4
:1007600039818C819D81B701820F931F0E94AF0F49
:100770001D830C8381E0DECFCF93DF93EC01888172
:100780009981009711F00E94600E198218821D82D3
:100790001C821B821A82DF91CF910895EF92FF9203
:1007A0000F931F93CF93DF93EC017B018A01BA0172
:1007B0000E94680381110BC0CE010E94BC03CE01D0
:1007C000DF91CF911F910F91FF90EF9008951D83BE
:1007D0000C83B701888199810E94AF0FF0CFFC0193
:1007E00080819181009711F00C94600E08950F9311
:1007F0001F93CF93DF93CDB7DEB768970FB6F8940A
:10080000DEBF0FBECDBF80919002909191029C01FE
:100810002F5F3F4F30939102209390021C8A1B8AD6
:100820001E8A1D8A188E1F8A4AE08E010F5F1F4F95
:10083000B8010E949E08F80101900020E9F7319765
:10084000AF01401B510BB801CE0143960E94CE036D
:100850001A8219821C821B821E821D824FE050E088
:1008600061E271E0C8010E94CE034F89588D6B8907
:100870007C89C8010E949003811103C0C8010E94B5
:10088000BC03C8010E940103C8010E94EF03CE010E
:1008900043960E94EF0368960FB6F894DEBF0FBE32
:1008A000CDBFDF91CF911F910F9108952F923F926D
:1008B0004F925F926F927F928F929F92AF92BF9270
:1008C000CF92DF92EF92FF920F931F93CF93DF931C
:1008D000CDB7DEB7A7970FB6F894DEBF0FBECDBF7A
:1008E0008091000190910101019709F492C08091DB
:1008F00000019091010104970CF08BC080910001E0
:1009000090910101029709F04FC1E99883EF92E0BD
:1009100090930501809304018CE591E00E945A03B5
:1009200023E2222E312C8091000190910101029747
:1009300009F08BC080E00E94090183E090E00197FC
:10094000F1F781E00E940901C1010197F1F780E010
:100950000E940901E8E9F1E06491E4E8F1E08491A2
:10096000E82FF0E0EE0FFF1FEE59FE4F85919491B6
:1009700000E412E42FE030E0462F0E945C0761158E
:1009800071058105910529F06F5F7F4F8F4F9F4F54
:100990009F7060938C0270938D0280938E0290936F
:1009A0008F0287E891E00E94F40260918C027091BE
:1009B0008D0280918E0290918F0222E030E040E023
:1009C00050E00E949F0DCA01B9010E94110B2DEC4D
:1009D0003CEC48EE51E40E94D20C20E030E048ECC0
:1009E00052E40E94D20C6B017C014B015C01AC0112
:1009F0009B010E94780D882309F442C082E991E0AE
:100A00000E94F4028EE991E00E945A030E94BE0205
:100A10008ACF81E090E0909301018093000187EFFD
:100A200093E09093050180930401809169008C60AC
:100A300080936900E99A81E391E00E945A038091D2
:100A40000001909101010197D1F30E945604A796ED
:100A50000FB6F894DEBF0FBECDBFDF91CF911F91CF
:100A60000F91FF90EF90DF90CF90BF90AF909F904D
:100A70008F907F906F905F904F903F902F90089550
:100A800026013701E89477F82FEF3FEF4FE75FE754
:100A9000C301B2010E94780D81110DC02FEF3FEF0D
:100AA0004FE75FE7C301B2010E940A0B18161CF45E
:100AB00086E991E0A5CF2FEF3FEF4FE75FE4C70155
:100AC000B6010E94730D18161CF48AE991E098CFC4
:100AD0002FEF3FEF4FE75FECC701B6010E940A0B13
:100AE00087FDF3CF20E030E0A901C701B6010E94E5
:100AF0000A0B87FF0BC06DE28BE992E00E94FB01BD
:100B000046015701B7FAB094B7F8B0942AE037ED30
:100B100043EA5BE3C501B4010E94660C4B015C0132
:100B20000E94440D6B017C010E940F0B9B01AC01E4
:100B3000C501B4010E94650C4B015C014AE0C7018C
:100B4000B6010E9416036EE28BE992E00E94FB015F
:100B500020E030E040E251E4C501B4010E94700B96
:100B60004B015C010E94440D6B01F12CE12C4AE029
:100B7000C701B6010E941603C701B6010E940F0B00
:100B80009B01AC01C501B4010E94650C20E030E07E
:100B900040E251E40E94700B0E94440D90E080E01E
:100BA0004AE00E9416032ECF80910001909101012E
:100BB000039709F04CCF81EA91E00E945A0380E448
:100BC000F82E8091000190910101039709F03DCF2B
:100BD000F0927C0080917A00806480937A0080910A
:100BE0007A0086FDFCCF80917800609179001BA28D
:100BF0001AA21DA21CA21FA21EA2762F682F072ECA
:100C0000000C880B990B0E94110B20E030E040E8AB
:100C10005AE30E94700B20E030E44CE955E40E9456
:100C2000700B20E030E040E251E40E94D20C8E01D3
:100C30000F5F1F4F22E044E00E948008009709F4F4
:100C400046C0FC0101900020E9F73197AF01481B35
:100C5000590BBC01CE0182960E94CE031A821982E2
:100C60001C821B821E821D824DE050E06CEC71E004
:100C7000CE0101960E94CE034EA15FA16AA17BA185
:100C8000CE0101960E949003811104C0CE0101960D
:100C90000E94BC0341E050E06AED71E0CE01019694
:100CA0000E949003811104C0CE0101960E94BC03F2
:100CB000CE0101960E940103CE0101960E94EF032E
:100CC000CE0182960E94EF030E94BE027ACFCE012F
:100CD00082960E94BC03C2CF1F920F920FB60F9252
:100CE00011242F933F934F935F936F937F938F9331
:100CF0009F93AF93BF93EF93FF938BE992E00E9492
:100D0000D901FF91EF91BF91AF919F918F917F9109
:100D10006F915F914F913F912F910F900FBE0F9068
:100D20001F9018951F920F920FB60F9211242F93B8
:100D30008F939F93EF93FF93E091AB02F091AC02FE
:100D40008081E091B102F091B20282FD1BC09081DE
:100D50008091B4028F5F8F732091B502821741F0AA
:100D6000E091B402F0E0E556FD4F958F8093B40218
:100D7000FF91EF919F918F912F910F900FBE0F9048
:100D80001F9018958081F4CF1F920F920FB60F928B
:100D900011242F933F938F939F93AF93BF93809191
:100DA000930290919402A0919502B0919602309195
:100DB000920223E0230F2D3758F50196A11DB11D96
:100DC000209392028093930290939402A0939502B1
:100DD000B09396028091970290919802A091990207
:100DE000B0919A020196A11DB11D80939702909334
:100DF0009802A0939902B0939A02BF91AF919F91EC
:100E00008F913F912F910F900FBE0F901F901895CB
:100E100026E8230F0296A11DB11DD2CF1F920F927B
:100E20000FB60F9211242F933F934F935F936F93BD
:100E30007F938F939F93AF93BF93EF93FF93E09133
:100E40000401F09105010995FF91EF91BF91AF91D8
:100E50009F918F917F916F915F914F913F912F91D2
:100E60000F900FBE0F901F9018951F920F920FB604
:100E70000F9211242F933F934F935F936F937F9320
:100E80008F939F93AF93BF93EF93FF93E0910201F2
:100E9000F09103010995FF91EF91BF91AF919F915F
:100EA0008F917F916F915F914F913F912F910F9013
:100EB0000FBE0F901F901895CF92DF92EF92FF9286
:100EC0000F931F93E82FF92F05C001501109210935
:100ED000310961F1908196239417B9F305C001504F
:100EE00011092109310911F1908196239413F7CF4B
:100EF000C12CD12CE12CF12C0AC08FEFC81AD80AD2
:100F0000E80AF80A0C151D052E053F0579F08081C9
:100F10008623841791F36C2D7D2D8E2D9F2D1F918F
:100F20000F91FF90EF90DF90CF90089560E070E018
:100F300080E090E01F910F91FF90EF90DF90CF90B5
:100F40000895789484B5826084BD84B5816084BD41
:100F500085B5826085BD85B5816085BD80916E0057
:100F6000816080936E001092810080918100826088
:100F700080938100809181008160809381008091C5
:100F800080008160809380008091B10084608093B4
:100F9000B1008091B00081608093B00080917A00B0
:100FA000846080937A0080917A00826080937A00D6
:100FB00080917A00816080937A0080917A008068C5
:100FC00080937A001092C100E091AB02F091AC02E4
:100FD00082E08083E091A702F091A8021082E09164
:100FE000A902F091AA028FEC80831092B302E091E3
:100FF000AF02F091B00286E08083E091AD02F09103
:10100000AE02808180618083E091AD02F091AE02FA
:10101000808188608083E091AD02F091AE02808192
:1010200080688083E091AD02F091AE0280818F7D77
:10103000808361E085E00E94680260E084E00E94B5
:10104000680260E082E00E94680260E083E00E9443
:10105000680281E591E09093030180930201809101
:1010600069008C7F826080936900E89A8CED91E042
:101070000E945A0386E092E00E945A038FE292E0B7
:101080000E945A0384E692E00E945A030E9456048A
:10109000C0E0D0E02097F1F30E94C5018823D1F38E
:1010A0000E940000F7CFEBE9F2E01382128288EE93
:1010B00093E0A0E0B0E084839583A683B78380E1CA
:1010C00091E09183808385EC90E09587848784EC20
:1010D00090E09787868780EC90E0918B808B81EC05
:1010E00090E0938B828B82EC90E0958B848B86ECE6
:1010F00090E0978B868B118E128E138E148E08952E
:10110000EF920F931F93CF93DF93E80134E047FDF5
:1011100034E1042E000C550B57FF03C05195419547
:101120005109E32E022F242FAE010E94C308CE01E5
:10113000DF91CF911F910F91EF900895BB274A3017
:1011400031F4992322F4BDE2909581959F4F0C9440
:10115000AA08BB27FB015527AA27880F991FAA1F9A
:10116000A41710F0A41B83955051B9F7A05DAA33C2
:1011700008F0A95DA193009779F7B111B19311928D
:10118000CB010C94FA0AA9E0B0E0E9ECF8E00C9489
:10119000340C6A01F22EB02E102FFBE3AF2EA016F6
:1011A00008F41BE31F5F012F27E0AE014F5F5F4F85
:1011B0000E94220ABC018981982F9970913009F40C
:1011C0003FC09BE2E1FC04C09E2D9170E0FC3AC060
:1011D0005E2D5071E82FE87083FF46C084E09111C6
:1011E00001C083E0EF2DE81B8F1508F0E0E0D60189
:1011F0008E2F20E2552351F1992329F0D6019C939B
:10120000C60101966C0196012D5F3F4FE2FE24C09E
:101210008EE4D6018C9391E411969C9311971296CB
:101220008C93D9018E2F90E281111BC0E20FF32F16
:10123000F11D10828EEF9FEF2996ECE00C94500C7C
:101240009DE2C6CF90E2C4CF2D9381508111FCCF97
:10125000CE0ED11CE0E0D0CF8EE6D6018C9391E685
:10126000DBCF9D938150E0CF482F447082FF3DC07B
:1012700084E0911101C083E08F1510F4EF2DE81B7D
:10128000D6018E2F20E2552309F1992329F0D601AA
:101290009C93C60101966C0196012D5F3F4FE2FEC3
:1012A0001BC089E4D6018C938EE411968C93119720
:1012B00086E412968C93D9018E2F90E2882309F44C
:1012C000B5CF9D938150FACF2D9381508111FCCFE2
:1012D000CE0ED11CE0E0D9CF89E6D6018C938EE604
:1012E00011968C93119786E6E4CF9B0177FF02C09D
:1012F00030E020E0A1E0B0E0911102C0B0E0A0E059
:10130000F9013196AE0FBF1F8B2C912CBB2009F435
:1013100061C05401EFEFAE1ABE0AAA0DBB1DFA164A
:101320001B0619F014F04F2D4A1B511188C0E3FC25
:1013300059C07601A42FB0E2A1114FC0C40ED11C38
:10134000992309F45BC040E0D6011196F601908321
:101350006D01552309F448C0012F060F9A81582FBB
:10136000507184FF03C0913309F4015010160CF042
:1013700047C0093008F008E0EEE2FE2E5B01A01A3B
:10138000B10885019194819491082F3F320729F487
:10139000D601FC92F60131966F016217730794F142
:1013A000021713077CF5DB01A21BB30BAA24A3943D
:1013B000B12CAC0EBD1EAA0DBB1D11968C912150F7
:1013C0003109D601119628153905F4F0F60180830C
:1013D0006D01DBCFB12CA12CA0CFF701B1937F0120
:1013E000A150AACF9111B0CFD601942F50E302C0E3
:1013F0005D9391509111FCCFC40ED11C40E0ACCF55
:1014000001E0BACF80E3DBCF6217730731F4963384
:1014100088F4953311F4552369F0F6018083FD01BA
:10142000842F90E2811108C0A40FB11D1C9290E09E
:1014300080E002CF81E3F1CF91938150F3CF9111FE
:1014400083CF8ACF283008F027E03327DA01990FBD
:10145000311D87FD916000966105710539F4326098
:101460002E5F3D9330E32A95E1F708959F3F30F0DA
:1014700080387105610509F03C5F3C5F3D93913018
:1014800008F08068911DDF93CF931F930F93FF9215
:10149000EF92192F987F9695E92F96959695E90FDB
:1014A000FF27EE53FF4F99273327EE24FF24A70190
:1014B000E70105900894079428F4360FE71EF81EFC
:1014C000491F511D660F771F881F991F0694A1F7AA
:1014D0000590079428F4E70EF81E491F561FC11DFA
:1014E000770F881F991F661F0694A1F70590079430
:1014F00028F4F80E491F561FC71FD11D880F991FCA
:10150000661F771F0694A1F70590079420F4490FF2
:10151000561FC71FD81F990F661F771F881F069475
:10152000A9F784911095177041F0D695C7955795F6
:101530004795F794E7941A95C1F7E8E6F0E06894C8
:101540001590159135916591959105907FE2739570
:10155000E118F10A430B560BC90BD009C0F7E10C97
:10156000F11E431F561FC91FD01D7EF4703311F4A6
:101570008A95E6CFE894015030F0080F0AF400276E
:10158000021708F4202F2395022F7A3328F079E3ED
:101590007D932A95E9F710C07D932A9589F60694E4
:1015A00097956795379517951794E118F10A430BAE
:1015B000560BC90BD00998F023957E9173957A3319
:1015C00008F070E37C932013B8F77E9170617D93EF
:1015D00030F0839571E37D9370E32A95E1F7112450
:1015E000EF90FF900F911F91CF91DF91992787FD89
:1015F00090950895DC01FC01672F71917723E1F745
:10160000329704C07C916D9370836291AE17BF07CF
:10161000C8F308950E944C0B08F481E00895E89403
:1016200009C097FB3EF490958095709561957F4F2A
:101630008F4F9F4F9923A9F0F92F96E9BB279395D8
:10164000F695879577956795B795F111F8CFFAF4E8
:10165000BB0F11F460FF1BC06F5F7F4F8F4F9F4F19
:1016600016C0882311F096E911C0772321F09EE877
:10167000872F762F05C0662371F096E8862F70E0DD
:1016800060E02AF09A95660F771F881FDAF7880FB7
:101690009695879597F90895990F0008550FAA0B0D
:1016A000E0E8FEEF16161706E807F907C0F0121675
:1016B0001306E407F50798F0621B730B840B950B78
:1016C00039F40A2661F0232B242B252B21F40895CD
:1016D0000A2609F4A140A6958FEF811D811D08956A
:1016E0000E94830B0C94F40B0E94E60B38F00E94CE
:1016F000ED0B20F0952311F00C94DD0B0C94E30B13
:1017000011240C94280C0E94050C70F3959FC1F3D2
:10171000950F50E0551F629FF001729FBB27F00D9F
:10172000B11D639FAA27F00DB11DAA1F649F6627F4
:10173000B00DA11D661F829F2227B00DA11D621F43
:10174000739FB00DA11D621F839FA00D611D221FFD
:10175000749F3327A00D611D231F849F600D211DE1
:10176000822F762F6A2F11249F5750409AF0F1F064
:1017700088234AF0EE0FFF1FBB1F661F771F881FCD
:1017800091505040A9F79E3F510580F00C94DD0B1D
:101790000C94280C5F3FE4F3983ED4F3869577953C
:1017A0006795B795F795E7959F5FC1F7FE2B880F73
:1017B000911D9695879597F9089597F99F6780E809
:1017C00070E060E008959FEF80EC089500240A9493
:1017D0001616170618060906089500240A9412160C
:1017E0001306140605060895092E0394000C11F43F
:1017F000882352F0BB0F40F4BF2B11F460FF04C0EC
:101800006F5F7F4F8F4F9F4F089557FD9058440F44
:10181000551F59F05F3F71F04795880F97FB991F4F
:1018200061F09F3F79F0879508951216130614060C
:10183000551FF2CF4695F1DF08C016161706180699
:10184000991FF1CF86957105610508940895E89474
:10185000BB2766277727CB0197F908952F923F92F0
:101860004F925F926F927F928F929F92AF92BF92B0
:10187000CF92DF92EF92FF920F931F93CF93DF935C
:10188000CDB7DEB7CA1BDB0B0FB6F894DEBF0FBEB9
:10189000CDBF09942A88398848885F846E847D8406
:1018A0008C849B84AA84B984C884DF80EE80FD8008
:1018B0000C811B81AA81B981CE0FD11D0FB6F8947E
:1018C000DEBF0FBECDBFED0108955058BB27AA273C
:1018D0000E947D0C0C94F40B0E94E60B38F00E94E1
:1018E000ED0B20F039F49F3F19F426F40C94E30B30
:1018F0000EF4E095E7FB0C94DD0BE92F0E94050C3C
:1019000058F3BA17620773078407950720F079F434
:10191000A6F50C94270C0EF4E0950B2EBA2FA02DF3
:101920000B01B90190010C01CA01A0011124FF278C
:10193000591B99F0593F50F4503E68F11A16F04087
:10194000A22F232F342F4427585FF3CF4695379586
:101950002795A795F0405395C9F77EF41F16BA0B4B
:10196000620B730B840BBAF09150A1F0FF0FBB1FF9
:10197000661F771F881FC2F70EC0BA0F621F731F42
:10198000841F48F4879577956795B795F7959E3F9F
:1019900008F0B0CF9395880F08F09927EE0F979530
:1019A000879508950E94E60C0C94F40B0E94ED0BB1
:1019B00058F00E94E60B40F029F45F3F29F00C94A8
:1019C000DD0B51110C94280C0C94E30B0E94050CB8
:1019D00068F39923B1F3552391F3951B550BBB275E
:1019E000AA2762177307840738F09F5F5F4F220FA3
:1019F000331F441FAA1FA9F335D00E2E3AF0E0E89A
:101A000032D091505040E695001CCAF72BD0FE2FE3
:101A100029D0660F771F881FBB1F26173707480777
:101A2000AB07B0E809F0BB0B802DBF01FF2793582F
:101A30005F4F3AF09E3F510578F00C94DD0B0C940B
:101A4000280C5F3FE4F3983ED4F38695779567952D
:101A5000B795F7959F5FC9F7880F911D9695879564
:101A600097F90895E1E0660F771F881FBB1F621783
:101A700073078407BA0720F0621B730B840BBA0B41
:101A8000EE1F88F7E09508950E940D0C88F09F578F
:101A900098F0B92F9927B751B0F0E1F0660F771F92
:101AA000881F991F1AF0BA95C9F714C0B13091F088
:101AB0000E94270CB1E008950C94270C672F782F13
:101AC0008827B85F39F0B93FCCF38695779567954D
:101AD000B395D9F73EF490958095709561957F4FB9
:101AE0008F4F9F4F08950E944C0B08F48FEF08957D
:101AF0000E944C0B880B990B0895A1E21A2EAA1B89
:101B0000BB1BFD010DC0AA1FBB1FEE1FFF1FA217AD
:101B1000B307E407F50720F0A21BB30BE40BF50BAA
:101B2000661F771F881F991F1A9469F76095709533
:101B3000809590959B01AC01BD01CF010895052EC4
:101B400097FB1EF400940E94B60D57FD07D00E942B
:101B50007D0D07FC03D04EF40C94B60D50954095C6
:101B6000309521953F4F4F4F5F4F08959095809549
:101B7000709561957F4F8F4F9F4F0895EE0FFF1F18
:101B80000590F491E02D09940F931F93CF93DF9369
:101B90008230910510F482E090E0E0913A03F091F8
:101BA0003B0330E020E0B0E0A0E0309799F421154D
:101BB000310509F44AC0281B390B24303105D8F50A
:101BC0008A819B816115710589F1FB019383828371
:101BD000FE0111C0408151810281138148175907CC
:101BE000E0F04817590799F4109761F012960C939A
:101BF000129713961C933296CF01DF91CF911F91CC
:101C00000F91089500933A0310933B03F4CF2115ED
:101C1000310551F04217530738F0A901DB019A0151
:101C2000BD01DF01F801C1CFEF01F9CF90933B0374
:101C300080933A03CDCFFE01E20FF31F819391937E
:101C40002250310939832883D7CF2091380330912E
:101C50003903232B41F4209108013091090130937D
:101C60003903209338032091060130910701211593
:101C7000310541F42DB73EB740910A0150910B0157
:101C8000241B350BE0913803F0913903E217F30779
:101C9000A0F42E1B3F0B2817390778F0AC014E5FDC
:101CA0005F4F2417350748F04E0F5F1F50933903DD
:101CB00040933803819391939FCFF0E0E0E09CCF75
:101CC000CF93DF930097E9F0FC01329713821282E1
:101CD000A0913A03B0913B03ED0130E020E0109772
:101CE000A1F420813181820F931F2091380330911C
:101CF00039032817390709F061C0F0933903E093DD
:101D00003803DF91CF910895EA01CE17DF07E8F598
:101D10004A815B819E0141155105B1F7E901FB83C1
:101D2000EA8349915991C40FD51FEC17FD0761F45F
:101D3000808191810296840F951FE90199838883A0
:101D4000828193819B838A83F0E0E0E012968D91FB
:101D50009C9113970097B9F52D913C911197CD0166
:101D60000296820F931F2091380330913903281770
:101D7000390739F6309751F510923B0310923A0328
:101D8000B0933903A0933803BCCFD383C28340817F
:101D90005181840F951FC817D90761F44E5F5F4FBB
:101DA00088819981480F591F518340838A819B8183
:101DB000938382832115310509F0B0CFF0933B0363
:101DC000E0933A039ECFFD01DC01C0CF1382128263
:101DD000D7CFB0E0A0E0EFEEFEE00C94300C8C0129
:101DE000009751F4CB010E94C40D8C01C801CDB7FE
:101DF000DEB7E0E10C944C0CFC01E60FF71F9C01F0
:101E000022503109E217F30708F49DC0D901CD91A2
:101E1000DC911197C617D70798F0C530D10530F37C
:101E2000CE0104978617970708F3C61BD70B229796
:101E3000C193D1936D937C93CF010E94600ED6CF56
:101E40005B01AC1ABD0A4C018C0E9D1EA0913A0399
:101E5000B0913B03512C412CF12CE12C109731F522
:101E600080913803909139038815990509F05CC079
:101E70004616570608F058C0809106019091070158
:101E8000009741F48DB79EB740910A0150910B0124
:101E9000841B950BE817F90708F055C0F093390338
:101EA000E0933803F90171836083A0CF8D919C91F9
:101EB000119712966C90129713967C901397A81511
:101EC000B90559F56C0142E0C40ED11CCA14DB04FB
:101ED00020F1AC014A195B09DA011296159780F0DE
:101EE0006282738251834083D9016D937C93E114A4
:101EF000F10471F0D7011396FC93EE93129776CF0D
:101F000022968C0F9D1FF90191838083F301EFCFFF
:101F1000F0933B03E0933A0369CF4816590608F45F
:101F20002C017D01D3019ACFCB010E94C40D7C010D
:101F3000009749F0AE01B8010E94A60FC8010E94A7
:101F4000600E870153CF10E000E050CFFB01DC01B1
:101F500002C001900D9241505040D8F70895FB0106
:101F6000DC0101900D920020E1F70895F894FFCF75
:101F70000100F302F30200003C03800000000000B7
:101F8000FB015B0188014802B9019701AB010D0A11
:101F900000444554454354454420534F554E442036
:101FA000000A0D2D2D2D2D2D2D2D2D2D2D2D534F89
:101FB000554E44204348414E4745204D4F44452D02
:101FC0002D2D2D2D2D2D2D2D2D2D2D000A0D2D2DB1
:101FD0002D2D2D2D2D2D2D2D2D2D2D44495354419D
:101FE0004E4345204D4F44452D2D2D2D2D2D2D2D6E
:101FF0002D2D2D2D2D2D0044697374616E63653A6E
:1020000020006E616E00696E66006F766600636D1B
:10201000000A0D2D2D2D2D2D2D2D2D2D2D2D2D5439
:10202000454D5045524154555245204D4F44452D44
:102030002D2D2D2D2D2D2D2D2D2D2D0054656D701B
:10204000657261747572653A200043002D2D2D2D47
:102050002D57656C636F6D6520746F202753656E17
:1020600073696E67204D616368696E6527212D2D48
:102070002D2D2D0A0D005468726565206D6F646505
:1020800073206F66206D65617375726D656E742067
:10209000617265206176616C6961626C653A0020ED
:1020A00020312E534F554E440A0D2020322E4449E4
:1020B0005354414E4345286C6F6F70290A0D202000
:1020C000332E54454D5045524154555245286C6F5E
:1020D0006F70290050726573732074686520274DF6
:1020E0004F44452720627574746F6E20746F2063AF
:0C20F00068616E6765206D6F64652E00EE
:107E0000112484B714BE81FFF0D085E080938100F7
:107E100082E08093C00088E18093C10086E0809377
:107E2000C20080E18093C4008EE0C9D0259A86E02C
:107E300020E33CEF91E0309385002093840096BBD3
:107E4000B09BFECF1D9AA8958150A9F7CC24DD24C4
:107E500088248394B5E0AB2EA1E19A2EF3E0BF2EE7
:107E6000A2D0813461F49FD0082FAFD0023811F036
:107E7000013811F484E001C083E08DD089C08234E0
:107E800011F484E103C0853419F485E0A6D080C0E4
:107E9000853579F488D0E82EFF2485D0082F10E0AE
:107EA000102F00270E291F29000F111F8ED06801E7
:107EB0006FC0863521F484E090D080E0DECF843638
:107EC00009F040C070D06FD0082F6DD080E0C81688
:107ED00080E7D80618F4F601B7BEE895C0E0D1E017
:107EE00062D089930C17E1F7F0E0CF16F0E7DF06D8
:107EF00018F0F601B7BEE89568D007B600FCFDCFD4
:107F0000A601A0E0B1E02C9130E011968C91119780
:107F100090E0982F8827822B932B1296FA010C0160
:107F200087BEE89511244E5F5F4FF1E0A038BF0790
:107F300051F7F601A7BEE89507B600FCFDCF97BE46
:107F4000E89526C08437B1F42ED02DD0F82E2BD052
:107F50003CD0F601EF2C8F010F5F1F4F84911BD097
:107F6000EA94F801C1F70894C11CD11CFA94CF0C13
:107F7000D11C0EC0853739F428D08EE10CD085E9AC
:107F80000AD08FE07ACF813511F488E018D01DD067
:107F900080E101D065CF982F8091C00085FFFCCF94
:107FA0009093C60008958091C00087FFFCCF809118
:107FB000C00084FD01C0A8958091C6000895E0E648
:107FC000F0E098E1908380830895EDDF803219F02E
:107FD00088E0F5DFFFCF84E1DECF1F93182FE3DFCA
:107FE0001150E9F7F2DF1F91089580E0E8DFEE27F6
:047FF000FF270994CA
:027FFE00040479
:00000001FF
